:100000009AC00000B3C00000B1C00000AFC0000043
:10001000ADC00000ABC00000A9C00000A7C0000038
:10002000A5C00000A3C00000A1C000003CC40000A7
:10003000E1C400009BC0000099C0000097C0000010
:1000400095C0000093C0000091C000008FC0000068
:100050008DC000008BC0000089C0000005C20000F8
:1000600085C0000083C0000081C000007FC0000088
:100070007DC000005E058005720680057206C5051C
:10008000E20572063506470624034100720064004B
:10009000750069006E006F0020004D00650067006C
:1000A00061002000320035003600300000003203CD
:1000B000410072006400750069006E006F0020004E
:1000C00028007700770077002E006100720064003E
:1000D000750069006E006F002E0063006300290048
:1000E00000000403090409023E00020100C03209B5
:1000F0000400000102020100052400011004240292
:10010000060524060001070582030800FF09040113
:1001100000020A00000007050402400001070583F1
:10012000024000011201100102000008EB034B2005
:1001300001000102DC0111241FBECFEFD2E0DEBFBF
:10014000CDBF11E0A0E0B1E0E2EFFFE002C005901A
:100150000D92A631B107D9F722E0A6E1B1E001C0C6
:100160001D92A233B207E1F767D041C749CFFC0126
:10017000E058FF4FA081B1816C93A081B1819D01B6
:100180002F5F3F4F318320832E173F0721F41296B4
:100190009C938E9311972FB7F894FC01EC57FF4F67
:1001A00080818F5F80832FBF0895DC01AE57BF4FE2
:1001B000ED91FC91119721911196FC93EE93AC0176
:1001C00040585F4FE417F50711F48D939C933FB7A8
:1001D000F894FC01EC57FF4F9081915090833FBF02
:1001E000822F089584B7877F84BF0FB6F894A895AF
:1001F00080916000886180936000109260000FBE63
:1002000087E690E09093CD008093CC0086E08093C9
:10021000CA001092C80088E18093C900539A5A9A84
:100220008AB180638AB98BB180638BB931D384E0A2
:1002300085BD5F9A579A0895D5DF2FB7F89481EA64
:1002400091E0909322028093210290932402809364
:1002500023022FBF2FB7F8948CE191E090939D017A
:1002600080939C0190939F0180939E012FBF78946F
:10027000D3E013E101E081E1F82E9FB7F89480917B
:1002800025029FBF803849F080E091E05DD697FD60
:1002900004C0682F81EA91E06ADF8FB7F894C091BB
:1002A000A0018FBFA89902C0C13658F1A89A8091C9
:1002B000A001882319F05D98D0931901CC2349F04F
:1002C0008CE191E072DF682F80E091E0DED5C150D3
:1002D000F5CF80911901882341F080911901815057
:1002E00080931901811101C05D9A80911A018823C0
:1002F00041F080911A01815080931A01811101C04F
:100300005C9A809118018823F9F0909116018091F0
:1003100001018093E9008091E800992359F085FF5D
:1003200013C08091C80085FFFCCFF092CE001092E0
:1003300016010AC085FD08C08091C80085FFFCCF6A
:100340001093CE00009316019FB7F8948091250278
:100350009FBF882381F08091170181110CC081EA31
:1003600091E023DF9091C80095FFFCCF8093CE00F1
:100370005C98D0931A0180E091E0D8D5C0D47DCFAD
:1003800080E091E038C580E091E0CBC40F931F93EB
:10039000CF938C01FC018489813021F0823021F4DB
:1003A000C0E203C0C0E301C0C0E0F801838982302D
:1003B00009F4C860F8018589873031F0883031F060
:1003C000863029F4C26003C0C46001C0C6601092C8
:1003D000C9001092C8001092CA00F8012785308920
:1003E0004189528981E02115F1EE3F074105510510
:1003F00008F080E080931801109217011092160106
:10040000211581EE38074105510581F0DA01C90156
:10041000B695A79597958795BC01CD0160587B4708
:10042000814E9F4FBCD52150310902C020E130E000
:100430003093CD002093CC00C093CA00F80187858B
:100440009089A189B2898115914EA105B10511F05C
:1004500082E001C080E08093C80088E98093C900F1
:10046000CF911F910F9108951F920F920FB60F9287
:1004700011242F933F934F935F936F937F938F93A9
:100480009F93AF93BF93EF93FF936091CE008091C2
:100490001801882359F0613131F0633139F481E07A
:1004A0008093170109C01092170106C08EB38430E3
:1004B00019F48CE191E05BDEFF91EF91BF91AF9178
:1004C0009F918F917F916F915F914F913F912F916C
:1004D0000F900FBE0F901F901895FC01858580FF2F
:1004E00002C05F9808955F9A0895292F332722301C
:1004F000310559F02330310569F021303105E9F437
:1005000082E190E024E231E01CC08EE390E026EE30
:1005100030E017C099278130910549F028F0029703
:1005200061F4E8E8F0E005C0E2EEF0E002C0EEEAD7
:10053000F0E0849190E09F0104C080E090E020E032
:1005400030E0FA01318320830895AC0128E030E0E7
:1005500080E02417350720F48F5F220F331FF9CF77
:100560008295807F08958093E900EBEEF0E0808132
:1005700081608083EDEEF0E010826093EC004083B8
:100580008091EE00881F8827881F08951092F4003C
:1005900080E08093E9001092F0001092E800109241
:1005A000ED009091EB009E7F9093EB008F5F853084
:1005B00081F7089580912A0287FF0FC08091E8009B
:1005C00082FD04C08EB38111F9CF10C08091E80084
:1005D0008B770AC08EB3882349F08091E80080FFB2
:1005E000F9CF8091E8008E778093E800089585E642
:1005F0009091EC0090FF05C09091E80090FF05C03D
:100600001BC09091E80092FD17C09EB39923B1F0F2
:100610009EB39530A9F09091EB0095FD13C0909199
:10062000E10092FFE5CF9091E1009B7F9093E10084
:100630008150F1F684E0089580E0089582E0089505
:1006400083E0089581E008952091300230913102D5
:100650002617370748F06115710539F42091E80035
:100660002E772093E80001C0B90130E061157105D3
:1006700061F12091E80023FD37C02091E80022FDC0
:100680002DC02EB3222391F12EB3253089F1209174
:10069000E80020FFEBCF2091F200FC01CF016115B3
:1006A000710549F0283038F481918093F100615050
:1006B00071092F5FF3CF31E0283009F030E020914D
:1006C000E8002E772093E800D1CF3111D2CF06C0B9
:1006D0008EB3882359F08EB3853051F08091E800B5
:1006E00082FFF6CF80E0089581E0089582E00895CA
:1006F00083E00895209130023091310226173707A8
:1007000048F06115710539F42091E8002E772093A7
:10071000E80001C0B90130E06115710569F120916F
:10072000E80023FD38C02091E80022FD2EC02EB342
:10073000222399F12EB3253091F12091E80020FF7A
:10074000EBCF2091F200FC01CF016115710551F052
:10075000283040F484918093F100615071092F5F3B
:100760003196F2CF31E0283009F030E02091E800F6
:100770002E772093E800D0CF3111D1CF06C08EB3B1
:10078000882359F08EB3853051F08091E80082FFC4
:10079000F6CF80E0089581E0089582E0089583E037
:1007A00008956115710529F42091E8002B772093B5
:1007B000E8006115710511F12091E80023FD24C0C6
:1007C0002EB3222319F12EB3253011F12091E80028
:1007D00022FFEFCF2091F200222331F301962091E6
:1007E000F100FC01319720836150710999F7DCCF4A
:1007F0008EB3882359F08EB3853051F08091E80094
:1008000080FFF6CF80E0089581E0089582E00895AA
:1008100083E0089542D044D01EBA1092280210926C
:1008200027021092260284E089BD89B5826089BDC5
:1008300009B400FEFDCF8091D800982F9F77909348
:10084000D80080688093D800809163008E7F809369
:1008500063008091D8008F7D8093D8008091E00064
:100860008E7F8093E0008091E1008E7F8093E10095
:100870008091E20081608093E2008091E100877FB7
:100880008093E1008091E20088608093E200089507
:10089000C1DF81E08093290208951092E20008955B
:1008A0001092E10008951F920F920FB60F9211243B
:1008B0002F933F934F935F936F937F938F939F9368
:1008C000AF93BF93EF93FF938091E10080FF1BC034
:1008D0008091E20080FF17C08091E1008E7F8093BD
:1008E000E1008091E2008E7F8093E2008091E2003F
:1008F00080618093E2008091D80080628093D8006C
:1009000019BC1EBAFBD18091E10084FF29C08091FF
:10091000E20084FF25C084E089BD89B5826089BD7D
:1009200009B400FEFDCF8091D8008F7D8093D80060
:100930008091E1008F7E8093E1008091E2008F7EC4
:100940008093E2008091E20081608093E2008091D8
:100950002802811102C081E001C084E08EBBCED1AB
:100960008091E10083FF27C08091E20083FF23C0D4
:100970008091E100877F8093E10082E08EBB10923E
:1009800028028091E1008E7F8093E1008091E20057
:100990008E7F8093E2008091E20080618093E2008C
:1009A000F5DD42E060E080E0DEDD8091F00088600F
:1009B0008093F000A3D18091E10082FF0AC0809172
:1009C000E20082FF06C08091E1008B7F8093E1000E
:1009D00095D1FF91EF91BF91AF919F918F917F91B1
:1009E0006F915F914F913F912F910F900FBE0F909C
:1009F0001F9018951F920F920FB60F921124FF921D
:100A00000F931F932F933F934F935F936F937F9316
:100A10008F939F93AF93BF93CF93DF93EF93FF9306
:100A2000C9EED0E088818770F82E188200EF10E0C0
:100A3000F8018081877F808378941DD0F894188294
:100A4000F801808188608083F882FF91EF91DF91C7
:100A5000CF91BF91AF919F918F917F916F915F9156
:100A60004F913F912F911F910F91FF900F900FBECB
:100A70000F901F9018951F93CF93DF93CDB7DEB7DC
:100A8000AA970FB6F894DEBF0FBECDBFEAE2F2E040
:100A900082E392E02091F10021938E179F07D1F716
:100AA00080912A0290912B02492F50E04A30510543
:100AB00008F018C1FA01E65CFF4F93C2803881F05C
:100AC000823809F00FC180912E0287708093E9006F
:100AD0008091EB0085FB882780F91092E90006C021
:100AE0008091260290912702911182609091E800F6
:100AF000977F9093E8008093F1001092F100C0C0BE
:100B0000282F2D7F09F0EEC0882319F0823061F084
:100B1000DAC080912C02813009F0D5C0933009F001
:100B200080E0809327022BC080912C02811127C086
:100B300080912E02877009F4C6C08093E90020914D
:100B4000EB0020FFC0C0933021F48091EB00806265
:100B500014C09091EB0090619093EB0021E030E0A5
:100B6000A90102C0440F551F8A95E2F74093EA009D
:100B70001092EA008091EB0088608093EB00109265
:100B8000E9008091E800877F7EC08111ABC01091A1
:100B90002C028091E800877F8093E8000BDD809134
:100BA000E80080FD04C08EB38111F9CF8CC0812F85
:100BB0008F7711F492E001C093E09EBB8068809330
:100BC000E30081C08058823008F08CC080912C02F4
:100BD00090912D028C3D53E0950779F583E08A834F
:100BE0008AE289833FB7F894DE01139690E02EE005
:100BF00041E2E22FF0E040935700E49190FF03C000
:100C0000E295EF702F5FEF7080E38E0F8A3310F064
:100C1000E95C01C0E82FF0E0ED93FD939F5F943114
:100C200041F73FBF8091E800877F8093E8006AE248
:100C300070E0CE01019608DD12C0AE014F5F5F4F3C
:100C400060912E0252DCBC01892B09F43CC09091CA
:100C5000E800977F9093E80089819A814BDD80912D
:100C6000E8008B778093E8002EC08038D9F580911A
:100C7000E800877F8093E800809128028093F1004C
:100C80008091E8008E778093E80094DC1CC081118D
:100C900029C080912C0290912D02992702979CF4F3
:100CA0008091E800877F8093E80080912C028093F8
:100CB000280280DC80912802811102C083E001C0FB
:100CC00084E08EBB5DDB8091E80083FF0DC08091E6
:100CD000EB0080628093EB008091E800877F809337
:100CE000E80002C050DBEFCFAA960FB6F894DEBF43
:100CF0000FBECDBFDF91CF911F9108950895CF937F
:100D00008EB3882359F0C091E900C7701092E900B2
:100D10008091E80083FDAFDEC093E900CF91089594
:100D20000895CF93DF932091E80023FF61C0FC0179
:100D3000208130E040912E0250912F02421753073C
:100D400009F056C0EC0180912B02813249F018F471
:100D50008032C9F04DC0823261F18332C9F148C09E
:100D600080912A02813A09F043C08091E800877F90
:100D70008093E80067E070E0CF010F9665DC80911A
:100D8000E8008B7713C080912A02813289F5809127
:100D9000E800877F8093E80067E070E0CF010F965E
:100DA00000DDCE01F3DA8091E8008E778093E800D1
:100DB0001FC080912A028132D9F48091E800877F98
:100DC0008093E80080912C028587CF0186DB0DC0DF
:100DD00080912A02813261F48091E800877F8093BC
:100DE000E80060912C02CF019BDFDF91CF91E2CB35
:100DF000DF91CF9108950F931F93CF93DF93EC0171
:100E0000FC013D9689E0DF011D928A95E9F78A8110
:100E10009B812C81211102C010E001C014E00981E6
:100E200094DB812B482F426061E8802F9CDB882374
:100E300031F18E819F812885211102C010E001C00F
:100E400014E00D8182DB812B482F426060E8802F07
:100E50008ADB8823A1F08A859B852C85211102C01D
:100E600010E001C014E0C98570DB812B482F42607F
:100E700061EC8C2FDF91CF911F910F9174CB80E0AB
:100E8000DF91CF911F910F9108950F931F93CF93EF
:100E90002EB32430F1F4FC010785108921893289B1
:100EA000012B022B032BA9F0C62F81818093E9002F
:100EB0008091E80085FF04C0C093F10080E00AC083
:100EC0008091E8008E778093E80091DB8823A1F37E
:100ED00001C082E0CF911F910F9108952EB324306D
:100EE00019F5FC014785508961897289452B462B8C
:100EF000472BD1F081818093E9008091F200882313
:100F000089F09091E8008091E8008E778093E80066
:100F100095FD08C06CDB811108C08091E8008E77D8
:100F20008093E80080E0089582E008952EB3243095
:100F300051F4FC014785508961897289452B462B04
:100F4000472B09F0CBCF08952EB3243019F08FEF43
:100F50009FEF0895FC014785508961897289452B6F
:100F6000462B472BA1F385818093E9008091E8000F
:100F700082FFEDCF8091F200882321F02091F100D3
:100F800030E002C02FEF3FEF8091F200811105C0E9
:100F90008091E8008B778093E800C9010895A1E271
:100FA0001A2EAA1BBB1BFD010DC0AA1FBB1FEE1FE3
:100FB000FF1FA217B307E407F50720F0A21BB30B2E
:100FC000E40BF50B661F771F881F991F1A9469F7AA
:100FD00060957095809590959B01AC01BD01CF0106
:100FE0000895EE0FFF1F0590F491E02D0994F894F9
:020FF000FFCF31
:100FF200000340000004400000020800000000005E
:06100200000000000000E8
:00000001FF
